:020000040800F2
:10000000480400209D010008AF020008AB02000870
:10001000AD020008E5010008FD0500080000000031
:100020000000000000000000000000007503000850
:10003000E701000800000000B10200082D040008DC
:10004000B7010008B7010008B7010008B7010008B0
:10005000B7010008B7010008B7010008B7010008A0
:10006000B7010008B7010008B7010008B701000890
:10007000B7010008B7010008B7010008B701000880
:10008000B7010008B7010008B7010008B701000870
:10009000B7010008B7010008B7010008B701000860
:1000A000B7010008B7010008B7010008B701000850
:1000B000B7010008B7010008B7010008B701000840
:1000C000B7010008B7010008B7010008B701000830
:1000D000B7010008B7010008B7010008B701000820
:1000E000B7010008B7010008B7010008B701000810
:1000F000B7010008B7010008B7010008B701000800
:10010000B7010008B7010008B7010008B7010008EF
:10011000B7010008B7010008B7010008B7010008DF
:10012000B7010008B7010008B7010008B7010008CF
:10013000B7010008B7010008B7010008B7010008BF
:10014000B7010008B7010008B7010008B7010008AF
:10015000B7010008B7010008B7010008B70100089F
:10016000B7010008B7010008B7010008B70100088F
:10017000B7010008B7010008B7010008B70100087F
:10018000B7010008B7010008DFF80CD000F018F83C
:1001900000480047750600084804002006488047CC
:1001A00006480047FEE7FEE7FEE7FEE7FEE7FEE75C
:1001B000FEE7FEE7FEE7FEE73104000889010008DC
:1001C000064C074D06E0E06840F0010394E80700A4
:1001D00098471034AC42F6D3FFF7DAFFF006000878
:1001E00010070008FEE77047F0B50023012403273D
:1001F0000D6804FA03F21540954242D1D0F800C0D0
:100200005E0007FA06F52CEA050CC0F800C091F86C
:1002100004C0D0F800E00CFA06FC4CEA0E0CC0F862
:1002200000C091F804C0BCF1010F02D0BCF1020F74
:100230001FD1D0F808C02CEA050CC0F808C091F80E
:1002400005C0D0F808E00CFA06FC4CEA0E0CC0F829
:1002500008C0D0F804C02CEA020CC0F804C0426800
:1002600091F806C00CFA03FC1FFA8CFC42EA0C025F
:100270004260C268AA43C260CA79C568B2402A43D4
:10028000C2605B1C102BB3D3F0BD4B07DB0E9A4052
:10029000C90810B500EB8100016A0F249C40A143FE
:1002A0000162016A1143016210BDFEE7FEE770477B
:1002B00070470000044A0029116801D0014300E0A2
:1002C000814311607047000030380240044A002921
:1002D000116801D0014300E08143116070470000C4
:1002E0004438024070B5204A1168204C11F00C01CE
:1002F00004D06610042903D0082903D004601BE051
:10030000066019E01849091F0B68C3F380550B6894
:1003100003F03F0315B1B6FBF3F301E0B4FBF3F3D5
:100320000C680968C4F388146343C1F30141491C94
:100330004900B3FBF1F1016011680F2303EA1111C9
:100340000B4B5C5C0168E14041601468072505EADD
:1003500094241C5D21FA04F48460126805EA523288
:100360009A5CD140C16070BD083802400024F4009E
:1003700020000020704700000CB5002027490190A4
:1003800000900A6842F480320A604FF4A0630A6861
:1003900002F400320092019A521C0192009A12B9A2
:1003A000019A9A42F3D10A68920334D50120009051
:1003B0001A484030026842F08052026018480268D1
:1003C00042F4804202601548083002680260026808
:1003D00042F400420260026842F4A0520260031F2D
:1003E000104A1A600A6842F080720A600A68920134
:1003F000FCD50D4A40F205611160016821F003014E
:100400000160016841F0020101600168C1F38101EE
:100410000229FAD10CBD00900CBD0000003802404A
:100420000070004008544007003C024000F028B82B
:100430000F4810B5016841F0010101600C4A00212C
:100440000832116002680B4B1A400260031D0A4A11
:100450001A60026822F48022026005480C300160B4
:10046000FFF78AFF05494FF00060086010BD0000EB
:1004700000380240FFFFF6FE1030002408ED00E0D7
:1004800003480168002902D00168491E01607047D5
:10049000000000200029818902D041F4005101E0D0
:1004A00021F40051818170472DE9F04180460121FE
:1004B0001020FFF70BFF01210220FFF7FBFE1A4C73
:1004C00000250120A571E0710227277140202060DE
:1004D0000320164E607121463046FFF785FE2771D6
:1004E0008020206021463046FFF77EFE10490C2018
:1004F000104CC1F800808D80CD800D818D814881A8
:10050000204600F021F8072206213046FFF7BDFE05
:10051000072211463046FFF7B8FE2046BDE8F041FD
:100520000121FFF7B7BF00000400002000040240D3
:1005300034000020001001400246002012880A42C8
:1005400000D00120704700007FB50446008A0D46A8
:1005500020F44051E88808432082A08941F20C61D0
:100560008843A9882A8911436A8902431143A181DA
:10057000A08A20F44071A8890843A0826846FFF74A
:10058000B1FE1A48844202D01948844201D103982E
:1005900000E00298A189090400EBC00101EB001002
:1005A000296801D5490000E08900B0FBF1F2642020
:1005B000B2FBF0F109010B096FF018056B4302EB78
:1005C0008302A3891D044FF0320306D503EBC20258
:1005D000B2FBF0F000F0070005E003EB0212B2FB03
:1005E000F0F000F00F00084320817FBD00100140B3
:1005F00000140140C1F3080181807047FEE700004C
:10060000014A024900F013B85106000830000020EA
:1006100002E008C8121F08C1002AFAD170477047CB
:10062000002001E001C1121F002AFBD170472DE913
:10063000F04116460F460446002503E03946B04710
:10064000641C6D1C20780028F8D12846BDE8F08194
:1006500070B5074D0446C1B22846FFF7CBFF4021D5
:100660002846FFF769FF0028F9D0204670BD00003A
:1006700000100140144808B500684FF47A71B0FBCF
:10068000F1F0401EB0F1807F0AD24FF0E0214861C6
:100690000E4AF02082F8140D0020886107200861BE
:1006A0004FF4E130FFF700FF09A0FFF7A9FF0D4C61
:1006B0004FF4FA650CA0FFF7A3FF009525602068B2
:1006C0000028FCD1F6E700000C0000200FE000E05D
:1006D00020546573742068656C6C6F20776F726C42
:1006E000640D000000000020206162630D00000026
:1006F0001007000800000020340000001006000869
:1007000044070008340000201404000020060008FC
:10071000000000000000000000000000007A030A52
:1007200000000000000000000102030406070809A1
:100730000000000001020304010203040607080987
:0407400000000000B5
:040000050800018965
:00000001FF
